:100000000C9472000C948F000C948F000C948F0051
:100010000C948F000C948F000C948F000C948F0024
:100020000C948F000C948F000C948F000C948F0014
:100030000C948F000C948F000C948F000C948F0004
:100040000C948F000C948F000C948F000C948F00F4
:100050000C948F000C948F000C948F000C948F00E4
:100060000C948F000C948F000C948F000C948F00D4
:100070000C948F000C948F000C948F000C948F00C4
:100080000C948F000C948F000C948F000C948F00B4
:100090000C948F000C948F000C948F000C948F00A4
:1000A0000C948F000C948F000C948F000C948F0094
:1000B0000C948F000C948F000C948F000C948F0084
:1000C0000C948F000C948F000C948F000C948F0074
:1000D0000C948F000C948F000C948F000C948F0064
:1000E0000C948F0011241FBECFEFD1E2DEBFCDBF35
:1000F00012E0A0E0B2E0E6E7F1E002C005900D9268
:10010000A030B107D9F722E0A0E0B2E001C01D9213
:10011000A230B207E1F70E9491000C94B9000C9450
:10012000000084B1816084B980B38E7F80BB84B1CC
:10013000826084B980B38D7F80BB84B1846084B9D0
:1001400080B38B7F80BB80E480937C0087E88093C2
:100150007A008FE99FE00197F1F700C000008091DD
:100160000002909101020196909301028093000297
:06017000F0CFF894FFCF70
:00000001FF
