:100000000C9472000C948F000C948F000C948F0051
:100010000C948F000C948F000C948F000C948F0024
:100020000C948F000C948F000C948F000C948F0014
:100030000C948F000C948F000C948F000C948F0004
:100040000C948F000C948F000C948F000C948F00F4
:100050000C948F000C948F000C948F000C948F00E4
:100060000C948F000C948F000C948F000C948F00D4
:100070000C948F000C948F000C948F000C948F00C4
:100080000C948F000C948F000C948F000C948F00B4
:100090000C948F000C948F000C948F000C948F00A4
:1000A0000C948F000C948F000C948F000C948F0094
:1000B0000C948F000C948F000C948F000C948F0084
:1000C0000C948F000C948F000C948F000C948F0074
:1000D0000C948F000C948F000C948F000C948F0064
:1000E0000C948F0011241FBECFEFD1E2DEBFCDBF35
:1000F00012E0A0E0B2E0E6EEF8E002C005900D925A
:10010000AA31B107D9F722E0AAE1B2E001C01D92FD
:10011000A032B207E1F70E9431010C9471040C94F3
:1001200000002AE032E0FC013183208308952AE0B8
:1001300032E0FC013183208368E070E00E942D01F1
:100140000895ECE7F0E09081907F8F70892B808399
:10015000EAE7F0E080818064808380917A0086FD08
:10016000FCCF809178009091790008958F929F92B2
:10017000AF92BF92CF92DF92EF92FF920F931F93B5
:10018000CF93DF93EC017B018A810E94A100BC0127
:1001900080E090E00E94090220E030EC4FE754E458
:1001A0000E9497014B015C010E811F81C701B801BC
:1001B0000E942803BC01990F880B990B0E940B0227
:1001C0006B017C01B801110F880B990B0E940B0287
:1001D000A50194010E94BB029B01AC01C701B601BD
:1001E0000E949201882374F4EB81FC81208181E0DC
:1001F00090E00D8002C0880F991F0A94E2F7822BCD
:1002000080830EC0EB81FC81208181E090E00D8035
:1002100002C0880F991F0A94E2F780958223808399
:10022000DF91CF911F910F91FF90EF90DF90CF90D2
:10023000BF90AF909F908F9008950F931F93FC01F4
:1002400084E192E091838083628354834383258396
:10025000178306831F910F9108950E94E803089564
:10026000FFCFCF93DF93CDB7DEB768970FB6F89483
:10027000DEBF0FBECDBF84B1816084B980B38E7FF5
:1002800080BB84B1826084B980B38D7F80BB84B130
:10029000846084B980B38B7F80BB80E480937C00D2
:1002A00087E880937A0004E110E020E045E250E026
:1002B00060E0CE0101960E941D0121E045E250E080
:1002C00061E0CE0109960E941D0122E045E250E066
:1002D00062E0CE0141960E941D018FE99FE00197E7
:1002E000F1F700C0000060911A0270911B026F5F6D
:1002F0007F4F70931B0260931A02CE0101960E94F9
:10030000B60060911A0270911B02CE0109960E94FC
:10031000B60060911A0270911B02CE0141960E94B4
:10032000B600DBCF0E94460208F481E008950E94E7
:10033000AB010C9481020E947A0258F00E94730271
:1003400040F029F45F3F29F00C946A0251110C949B
:10035000B5020C9470020E94920268F39923B1F3E3
:10036000552391F3951B550BBB27AA2762177307DB
:10037000840738F09F5F5F4F220F331F441FAA1F6F
:10038000A9F335D00E2E3AF0E0E832D0915050402B
:10039000E695001CCAF72BD0FE2F29D0660F771FD9
:1003A000881FBB1F261737074807AB07B0E809F0BF
:1003B000BB0B802DBF01FF2793585F4F3AF09E3F44
:1003C000510578F00C946A020C94B5025F3FE4F397
:1003D000983ED4F3869577956795B795F7959F5F87
:1003E000C9F7880F911D9695879597F90895E1E0D3
:1003F000660F771F881FBB1F621773078407BA0732
:1004000020F0621B730B840BBA0BEE1F88F7E0958C
:100410000895E89409C097FB3EF4909580957095F7
:1004200061957F4F8F4F9F4F9923A9F0F92F96E940
:10043000BB279395F695879577956795B795F111B5
:10044000F8CFFAF4BB0F11F460FF1BC06F5F7F4F52
:100450008F4F9F4F16C0882311F096E911C0772364
:1004600021F09EE8872F762F05C0662371F096E86D
:10047000862F70E060E02AF09A95660F771F881F3C
:10048000DAF7880F9695879597F90895990F0008E0
:10049000550FAA0BE0E8FEEF16161706E807F90756
:1004A000C0F012161306E407F50798F0621B730BF1
:1004B000840B950B39F40A2661F0232B242B252B72
:1004C00021F408950A2609F4A140A6958FEF811D15
:1004D000811D089597F99F6780E870E060E00895B6
:1004E0009FEF80EC089500240A941616170618064C
:1004F0000906089500240A94121613061406050628
:100500000895092E0394000C11F4882352F0BB0FB8
:1005100040F4BF2B11F460FF04C06F5F7F4F8F4F1B
:100520009F4F089557FD9058440F551F59F05F3F56
:1005300071F04795880F97FB991F61F09F3F79F005
:1005400087950895121613061406551FF2CF469587
:10055000F1DF08C0161617061806991FF1CF869509
:100560007105610508940895E894BB2766277727ED
:10057000CB0197F908950E94CE020C9481020E944B
:10058000730238F00E947A0220F0952311F00C9447
:100590006A020C94700211240C94B5020E9492021B
:1005A00070F3959FC1F3950F50E0551F629FF001C6
:1005B000729FBB27F00DB11D639FAA27F00DB11DDF
:1005C000AA1F649F6627B00DA11D661F829F222768
:1005D000B00DA11D621F739FB00DA11D621F839FEF
:1005E000A00D611D221F749F3327A00D611D231FC5
:1005F000849F600D211D822F762F6A2F11249F5713
:1006000050409AF0F1F088234AF0EE0FFF1FBB1F15
:10061000661F771F881F91505040A9F79E3F5105D4
:1006200080F00C946A020C94B5025F3FE4F3983EAC
:10063000D4F3869577956795B795F795E7959F5F7E
:10064000C1F7FE2B880F911D9695879597F9089510
:1006500097FB072E16F4009407D077FD09D00E946F
:100660003C0307FC05D03EF4909581959F4F08957B
:10067000709561957F4F0895AA1BBB1B51E107C080
:10068000AA1FBB1FA617B70710F0A61BB70B881F22
:10069000991F5A95A9F780959095BC01CD010895B1
:1006A0000F931F93CF93DF938230910510F482E074
:1006B00090E0E0911E02F0911F0220E030E0A0E007
:1006C000B0E0309719F140815181028113814817C0
:1006D0005907C8F08417950769F4109731F01296FE
:1006E0000C93129713961C9327C000931E0210932D
:1006F0001F0222C02115310519F04217530718F4C3
:100700009A01BD01EF01DF01F801DBCF21153105B1
:10071000F9F0281B390B2430310580F48A819B8144
:100720006115710521F0FB019383828304C09093CE
:100730001F0280931E02FE01329644C0FE01E20FAA
:10074000F31F8193919322503109398328833AC052
:1007500020911C0230911D02232B41F420910202B2
:100760003091030230931D0220931C02209100025D
:10077000309101022115310541F42DB73EB740916A
:10078000040250910502241B350BE0911C02F091EC
:100790001D02E217F307A0F42E1B3F0B28173907A1
:1007A00078F0AC014E5F5F4F2417350748F04E0FCD
:1007B0005F1F50931D0240931C028193919302C0CE
:1007C000E0E0F0E0CF01DF91CF911F910F9108950C
:1007D000CF93DF93009709F481C0FC013297138215
:1007E0001282A0911E02B0911F02109781F4208105
:1007F0003181820F931F20911C0230911D02281716
:10080000390751F5F0931D02E0931C0267C0ED011A
:1008100020E030E0CE17DF0740F44A815B819E0183
:1008200041155105F1F0EA01F5CFD383C283408130
:100830005181840F951FC817D90759F48881998170
:10084000840F951F0296918380838A819B81938375
:1008500082832115310529F4F0931F02E0931E02D3
:100860003DC0E901FB83EA8349915991C40FD51F2B
:10087000EC17FD0761F480819181840F951F02962A
:10088000E90199838883828193819B838A83E0E055
:10089000F0E012968D919C911397009719F0FD014D
:1008A000DC01F7CF8D919C9111979D012E5F3F4FF9
:1008B000820F931F20911C0230911D0228173907C7
:1008C00069F4309729F410921F0210921E0202C0A0
:1008D00013821282B0931D02A0931C02DF91CF916C
:0608E0000895F894FFCF1B
:1008E600000020022000000000003001000000008F
:0A08F60000000000B600910097001A
:00000001FF
